:020000040800F2
:10000000C0040020D5000008BD13000887120008B6
:1000100000000000000000000000000000000000E0
:1000200000000000000000000000000007140008AD
:10003000000000000000000005140008091400087A
:10004000E7000008E7000008E7000008E7000008F4
:10005000E7000008E7000008E7000008E7000008E4
:10006000E7000008E7000008E7000008E7000008D4
:10007000E7000008E7000008E7000008E7000008C4
:10008000E7000008E7000008E7000008E7000008B4
:10009000E7000008E7000008E7000008E7000008A4
:1000A000E7000008E7000008E7000008191C000846
:1000B000E7000008E7000008E7000008E700000884
:1000C0000348854600F060F800480047491C0008D6
:1000D000C00400200448804704480047FEE7FEE7CC
:1000E000FEE7FEE7FEE7FEE781140008C100000816
:1000F00030B50B46014600202022012409E00D46C0
:10010000D5409D4205D31D469540491B2546954047
:1001100040191546521E002DF1DC30BD70B500248B
:100120002546002801DA01244042002901DA012590
:100130004942FFF7DDFFAC4200D04042002C00D026
:10014000494270BD03460B439B0703D009E008C931
:10015000121F08C0042AFAD203E00B780370401C77
:10016000491C521EF9D2704730B50546002003469F
:1001700000E05B1C934205D2EC5CC85C201A01D104
:10018000002CF6D130BD0000064C0125064E05E0DE
:10019000E36807CC2B430C3C98471034B442F7D3A8
:1001A000FFF792FF081E0008281E000870B5002403
:1001B000014620314A78022A03D0042181630124B8
:1001C00016E0026813680E25AB43136002681368DB
:1001D0005B085B0013600122056C1346AB40C56BE6
:1001E0006B604A7000220A70416B002900D088477A
:1001F000204670BDF8B5002393E0224601249C40C0
:10020000A44622407ED04C68022C01D0122C0CD186
:10021000DC08A40027183C6A5D07ED0E0F26AE40EF
:10022000B4430E69AE4026433E6205685E00032477
:10023000B4400F79A543BF07BF0FB7402F430760F6
:100240004D68012D05D0022D03D0112D01D0122DA6
:100250000ED18568CF68A543B7402F4387604768B4
:100260006546AF430D79ED06ED0F9D403D4345607A
:10027000C568A5438C68B4402C43C4604C68E40056
:100280004ED52B4CA56901263543A561A4699D086F
:1002900034400094274CAD002F19BC689D072E0FE9
:1002A0000F25B540AC430925ED06A84201D1002534
:1002B00014E0214DA84201D101250FE01F4DA842B5
:1002C00001D102250AE01E4DA84201D1032505E017
:1002D0001C4DA84201D1042500E00525B540254369
:1002E000BD60194C25684E689543F60300D515434B
:1002F000256065684E689543B60300D51543656073
:10030000A56800E00CE04E689543F60200D5154361
:10031000A560E5684E689543B60200D51543E560D3
:100320005B1C0A681446DA4000D066E7F8BD00009E
:10033000001002400000014000040048000800488E
:10034000000C00480010004800040140002A01D0C1
:100350008161704781627047014800687047000002
:100360000400002002480168491C01607047000039
:100370000400002010B506480168102211430160F6
:10038000002000F007F800F017F8002010BD000072
:100390000020024010B5044600F078F97D21C90024
:1003A000FFF7A6FE00F0C6FB00222146501E00F01B
:1003B0002FF8002010BD000008B50F488169012208
:1003C00011438161816911400091C26901040A43AE
:1003D000C261C0690022084000901146501F00F021
:1003E00017F800221146901E00F012F80022114664
:1003F000501E00F00DF808BD00100240C106C90EE5
:1004000001208840014908607047000000E100E0D9
:1004100010B500F0D5FF10BDF8B504460068434D97
:10042000C00352D5E8690026C00007D4E969280452
:100430000143E961E9690140012600913C480168F6
:10044000C90510D40168821511430160FFF784FFCC
:10045000074604E0FFF780FFC01B642824D8344817
:100460000068C005F6D5286A03273F02384020D02F
:100470006168394081421CD0286A2A6AB843012148
:1004800009040A432A622A6A8A432A622862C00748
:100490000FD0FFF761FF009008E0FFF75DFF0099C4
:1004A000411A2448814201D90320F8BD286A8007F7
:1004B000F3D5286A6168B84308432862002E04D047
:1004C000E869012109078843E8612078C00705D061
:1004D000286BA16880088000084328632078800783
:1004E00006D5286B032109048843E1680843286383
:1004F0002078800605D5286B1021884321690843A0
:1005000028632068800305D5286B80218843A16972
:10051000084328632088400505D5286B402188437F
:100520006169084328630020F8BD00000010024004
:100530000070004088130000F8B505464E480E468E
:100540000068C007C00FB0420AD24B480168490892
:100550004900314301600068C007C00FB04270D14C
:100560002878464C800705D56068F0218843A96843
:10057000084360602878C00753D06868012817D006
:10058000022818D0032819D021688907002958DAD1
:1005900061688908890001436160FFF7DDFE6968D1
:1005A0000746012913D002291DD0032927D034E0A2
:1005B00021688903EAE721688901E7E7616BC903DC
:1005C000E4E7FFF7C9FEC11B2D48814223D86068CC
:1005D0000007800F0128F4D123E0FFF7BDFEC11B07
:1005E0002748814217D860680007800F0228F4D19D
:1005F00017E0FFF7B1FEC11B214881420BD86068AC
:100600000007800F0328F4D10BE0FFF7A5FEC11B04
:100610001B48814201D90320F8BD60680007800FA4
:10062000F3D115480168C907C90FB1420BD9016858
:1006300049084900314301600068C007C00FB0425B
:1006400001D00120F8BD2878400706D56068072151
:1006500009028843E9680843606000F02DF861688A
:10066000084A0906090F515CC84007490860002084
:10067000FFF790FE0020F8BD00200240001002406D
:1006800088130000F01D00080800002001480068E1
:1006900070470000080000200448054900684968C8
:1006A000044A4905490F515CC840704708000020C2
:1006B00000100240001E000830B516A30FCB89B011
:1006C0006C460FC417A30FCB0FC41A494A680C20FD
:1006D000144604401848042C05D0184B082C04D0AC
:1006E0000C2C00D1184609B030BD9402240F6D4681
:1006F0002C5DC96A04AD0907090FD203695C920F2A
:10070000022A02D0032A00D11846FFF7F1FC604309
:10071000E9E7000002030405060708090A0B0C0DAF
:100720000E0F10100102030405060708090A0B0C3E
:100730000D0E0F100010024000127A00006CDC0257
:10074000FEB504460078F04EF04DC00748D068680A
:100750000007800F01281FD068680007800F02285B
:1007600004D16868C003800F022815D06168012990
:1007700019D001208004002901D0052917D029684B
:10078000B1432960296881432960606800281BD033
:10079000FFF7E2FD074613E02868800320D5606874
:1007A000002876D01CE0286830432860EDE72968EF
:1007B00001432960F7E7FFF7CFFDC01B642869D824
:1007C00028688003F7D50BE0FFF7C6FD074604E075
:1007D000FFF7C2FDC01B6428F1D828688003F7D456
:1007E000207880073ED568680007800F14D06868BD
:1007F0000007800F022804D16868C003800F012819
:100800000AD0E068002828681DD00121084328602C
:10081000FFF7A2FD07460BE0286880070BD5E068CC
:10082000012836D107E0FFF797FDC01B0228C6D884
:1008300028688007F7D52868F82188432169C9000E
:10084000084328600EE0400840002860FFF784FD60
:10085000074604E0FFF780FDC01B0228AFD82868D8
:100860008007F7D42078000724D5E0690028686A5B
:1008700011D0012108436862FFF76EFD074604E0CE
:10088000FFF76AFDC01B022899D8686A8007F7D570
:1008900010E036E1D1E0400840006862FFF75CFDFF
:1008A000074604E0FFF758FDC01B022887D8686A96
:1008B0008007F7D4207804274007002861DA002059
:1008C0000190E869C00008D4E969B8060143E9610C
:1008D000E96901400120009101908D480168C90536
:1008E00011D40168821511430160FFF735FD0090B6
:1008F00005E0FFF731FD0099401A642897D8844835
:100900000068C005F5D5A06801280AD0002801D0EC
:10091000052811D0286A400840002862286AB84398
:1009200002E0286A012108432862A068002812D04A
:10093000FFF712FD00900AE0286A38432862F0E7CA
:10094000FFF70AFD0099411A7248814275D8286A5A
:100950008007F5D50DE0FFF7FFFC009006E0FFF7FC
:10096000FBFC0099411A6B48814266D8286A8007CF
:10097000F5D40198002804D0E969012000078143DB
:10098000E9612078C00635D5606901280CD0401D8A
:10099000686B24D038436863686B40084000686324
:1009A000FFF7DAFC074622E0686B38436863686B40
:1009B000012108436863FFF7CFFC074604E0FFF717
:1009C000CBFCC01B022838D8686B8007F7D5686B52
:1009D000F8218843A169C900084368630AE0B84365
:1009E0006863F4E7FFF7B8FCC01B022825D8686BE2
:1009F0008007F7D42078800637D568680007800F15
:100A0000032813D068680007800F022804D16868A3
:100A1000C003800F032809D0206A0028686B16D015
:100A200030436863FFF798FC06460CE0686BC00330
:100A30001BD5206A012864D117E05BE0FFF78CFC2E
:100A4000801B022856D8686BC003F7D50DE0B04371
:100A50006863FFF781FC064604E0FFF77DFC801B1E
:100A6000022847D8686BC003F7D4606A002846D0D4
:100A700069680907890F022943D001263606022832
:100A8000286805D0B0432860FFF766FC044633E0D1
:100A9000B0432860FFF760FC074604E0FFF75CFC0A
:100AA000C01B022826D828688001F7D4E86A216B89
:100AB000000900010843E862A16AE06A0843696826
:100AC0007B22D20391430843686028683043286042
:100AD000FFF742FC044604E0FFF73EFC001B02283F
:100AE00008D828688001F7D509E0FFF735FC001B1E
:100AF000022801D90320FEBD28688001F5D400201A
:100B0000FEBD0120FEBD00000000010000100240FB
:100B1000007000408813000004220449042808697A
:100B200002D09043086170471043FBE700E000E00B
:100B300070470000094910B5401E884201D90120C4
:100B400010BD074C60610321081F00F039FC002034
:100B5000A06107202061002010BD0000FFFFFF0002
:100B600000E000E010B5FFF7E3FF10BD70B50246EE
:100B70002032137F012B1BD00123137702245477DB
:100B8000046865687026B5436560046865680E682A
:100B9000354365600468A5688026B543A560006894
:100BA000846849680C43846053770020107770BDD7
:100BB000022070BD70B5040005D025462035687F41
:100BC000002802D006E0012070BD002028772046D2
:100BD00000F00AF802206877211D206800F07EFCF2
:100BE00001206877002070BD08B50068054988427B
:100BF00007D10548C26902210A43C261C0690840A1
:100C0000009008BD0004004000100240F8B5054601
:100C100004462035287F012817D001272F7702208E
:100C20006877226890687726FF23B0431B029843B9
:100C300090600868502837D00EDC202857D006DC9A
:100C400000284ED0102840D14EE00220F8BD3028B8
:100C500050D0402839D13CE060282DD0702817D0E2
:100C600001221203801A0ED090422ED1CB684A681E
:100C70008968206800F087FC20688168012292035F
:100C80001143816021E020688168C908C900F8E744
:100C9000CB684A688968206800F075FC216888681C
:100CA000B0433043886010E0CA684968206800F0AB
:100CB00079FD5021206806E0CA684968206800F084
:100CC00082FD6021206800F069FC6F7700202877A2
:100CD000F8BDCA684968206800F064FD40212068BA
:100CE000F1E700212068EEE710212068EBE72021E2
:100CF0002068E8E730212068E5E7000070B500686B
:100D00000E4986B0884216D18020022500240C4E60
:100D10000090019503946946029504943046FFF7CC
:100D200069FAE801009002940394694601950494DD
:100D30003046FFF75FFA06B070BD000000040040C7
:100D400000080048F8B5064604462036307F0D46B8
:100D500001280DD001203077022070770427002A67
:100D600008D0042A16D0082A2AD00C2A4DD137E000
:100D70000220F8BD206800F019FC20688169082273
:100D80001143816120688169B9438161206881696B
:100D90002A6912E0206800F04DFC20688269012178
:100DA000C9020A438261206881690122920291434B
:100DB0008161206881692A6912021143816124E0FE
:100DC000206800F077FC2068C26908210A43C261EC
:100DD0002068C169B943C1612068C1692A6912E00C
:100DE000206800F0A9FC2068C1690122D2021143E9
:100DF000C1612068C269012189028A43C2612068F9
:100E0000C1692A6912021143C16101207077002073
:100E10003077F8BD70B5040005D025462035687FD1
:100E2000002802D006E0012070BD0020287720466F
:100E300000F00AF802206877211D206800F04EFBC0
:100E400001206877002070BD7047000010B504468F
:100E50000068012200F08CFB0C482168814208D018
:100E60000B48814205D00B48814202D00A4881429A
:100E700004D1486C0122D203104348642068016801
:100E8000012211430160002010BD0000002C014030
:100E900000400140004401400048014030B5044694
:100EA0000068002200F064FB154A14482168931082
:100EB000814208D01348814205D01348814202D0B4
:100EC000124881420AD1086A104207D1086A1842C2
:100ED00004D1486C0125ED03A84348642068016AE9
:100EE000114206D1016A194203D10168490849003B
:100EF0000160012020346077002030BD002C0140CB
:100F00001111000000400140004401400048014030
:100F100070477047F8B503680446D8691968050733
:100F20002D0F07D1820605D58A0603D5204600F08D
:100F300023FDF8BD9A68002D64D0D507ED0FFF267C
:100F400021360E402E435DD0C60706D0CE0504D50F
:100F500001261E62E36E3343E366870702230426FD
:100F6000002F06DAD70704D027683B62E76E3743C5
:100F7000E766470706D5D20704D022681662E26EFC
:100F80001A43E266020709D520220A402A4305D007
:100F9000236808221A62E36E1343E366E26E002AB6
:100FA000C7D0800604D5880602D5204600F0E4FCB0
:100FB000E06E000703D42068806840061CD52046F8
:100FC00000F0BEFC20688168490611D58168402286
:100FD00091438160606E00280AD01A494163606EB7
:100FE000FFF7E4F80028A4D0606E416B8847F8BD95
:100FF0002046FFF78EFFF8BD2046FFF78AFF00204E
:10100000E066F8BDC5020DD552020BD501200005E2
:101010001862202120466030417281722046FFF71D
:1010200077FFF8BD020605D50A0603D5204600F075
:101030008FFDF8BD4006FCD54806FAD5204600F0E5
:101040008EFCF8BD2D19000870B5040005D02546AA
:101050006035687A002802D006E0012070BD0020CB
:101060002872204600F026F8242068722068016863
:10107000490849000160204600F0BCFC0128EDD081
:10108000606A002802D0204600F0B0FB206841686A
:101090000922D20291434160206881682A2291434B
:1010A000816020680168012211430160204600F040
:1010B00003FC70BD00B50068134987B0884220D199
:1010C00012488269012189030A43826180690840CC
:1010D0000590032040020090022001900020029021
:1010E000032003900120049009206946C006FFF701
:1010F00081F8002211461B20FFF78AF91B20FFF719
:101100007DF907B000BD000000380140001002402A
:10111000F0B5034660339C7A202C44D100290BD0D3
:10112000002A09D0012584682D03AC4206D1066946
:10113000002E03D1CE0701D00120F0BD1E7A012E72
:1011400031D001261E724165014640310A834A832F
:10115000FF27AC4204D10269002A12D1134A0EE0E3
:101160007F22002C08D001252D07AC420AD104694A
:10117000002C04D03F2202E00469002C01D08A83B5
:1011800000E08F830021C16622229A7219720168E1
:101190008A6832438A6000680168FF222132114365
:1011A00001600020F0BD0220F0BD0000FF01000042
:1011B000014901200860704700000020FFB5064685
:1011C00004466036707A83B00D46202858D1002D31
:1011D0000CD00598002809D00120A16800038142A5
:1011E00007D12069002804D1E80702D0012007B008
:1011F000F0BD307A012843D0012030720020E06633
:1012000021207072FFF7A8F8019027464037059813
:1012100038820598788218E0788A401E788206988D
:101220000090002280212046019B00F0C4FC002891
:1012300018D10120A1680003814202D12069002851
:1012400012D02168287808856D1C788A0028E3D19F
:1012500006980090002240212046019B00F0ABFC44
:10126000002808D00320C2E728882168C005C00DE7
:101270000885AD1CE9E72020707200203072B6E7C7
:101280000220B4E77047FEE730B5164887B04269E0
:10129000012189050A43426142690A400592426977
:1012A000C9100A43426142690A40059242698910A5
:1012B0000A4342614069092408400B4DA40105908E
:1012C000002221462846FFF741F800210120029123
:1012D00003910190009469462846FEF78BFF07B002
:1012E00030BD0000001002400008004810B523483F
:1012F0008EB02149016000240121846041600461B5
:101300001F498461C160FFF755FC002800D0FEE74B
:1013100001200003079007A91848FFF777FC002871
:1013200000D0FEE71548FFF775FD002800D0FEE766
:101330000B940BA911480C94FFF718FC002800D05F
:10134000FEE7602000900194029404226946049410
:101350000A48FFF7F7FC002800D0FEE7082269469C
:101360000648FFF7EFFC002800D0FEE70348FFF730
:10137000C5FC0EB010BD0000000400400C000020B1
:1013800080BB000010B50C480A4901604B2149029E
:10139000416000218160C16001618161C1610C22F5
:1013A000016242614162FFF74FFE002800D0FEE774
:1013B00010BD0000003801404C00002070470000C4
:1013C0008307FF22DB0E9A408907090E9940002807
:1013D0000BDA0007000F0838830808489B0018182C
:1013E000C36993430B43C3617047830804489B0060
:1013F0001B181868904308431860704700ED00E020
:1014000000E400E07047704710B5FEF7ABFFFFF750
:10141000A9FB10BD30B599B0202001250024009013
:10142000089509946846FFF78BF9002800D0FEE77D
:1014300007200D9003200E900F94012110940DA809
:10144000FFF77AF8002800D0FEE711A81195139451
:10145000FEF7E2FF002800D0FEE7FFF717F97D2135
:10146000C900FEF745FEFFF765FB0420FFF754FBBC
:1014700000221146501EFEF7CBFF19B030BD000010
:10148000124801680122114301604168104A11406D
:10149000416001680F4A1140016001680122920415
:1014A0009143016041683F22120491434160C16A47
:1014B00009090901C162016B074A11400163416BCF
:1014C00049084900416300218160704700100240D3
:1014D0000CB8FF08FFFFF6FE2CFEFCFFF0B502681B
:1014E0001D4B0124A4071D4D984203D0A04201D0FA
:1014F000A84203D17026B2434E683243184E194FAA
:1015000098420DD0A0420BD0A84209D0164CA04260
:1015100006D0B04204D0B84202D0144CA04204D14C
:1015200003242402A243CC6822438024A2434C69B2
:10153000224302608A68C2620A688262984206D0C8
:10154000B04204D0B84202D0084A904201D10969A1
:10155000016301214161F0BD002C01400004004005
:10156000004001400044014000200040004801408C
:1015700010B50123046A8B409C430462036A8A40CD
:101580001343036210BD30B58468FF252D021B0292
:101590001343AC430B432343836030BD8268702305
:1015A0009A430A4307210A4382607047F0B5026AF2
:1015B000520852000262056A436882697024A2439D
:1015C00092080C6892001443022295438A68164ED2
:1015D0002A43144DA84207D0B04205D0134FB84259
:1015E00002D0134FB84206D10827BA43CF68174339
:1015F000042297433A46A84207D0B04205D00B4D8B
:10160000A84202D00A4DA84206D103252D02AB43C1
:101610004D691D438B692B43436084614968416375
:101620000262F0BD002C0140004001400044014036
:101630000048014070B5026A10239A430262056AAD
:101640004268836973242402A3430C6824021C4368
:1016500020239D438B681B012B43124DA84208D1C8
:101660001D46CB688026B5431B012B434025AB4369
:1016700008E00D4DA84205D00C4DA84202D00C4DFB
:10168000A84208D10325AD02AA434D69AD00154318
:101690008A6992002A4342608461496881630362D7
:1016A00070BD0000002C014000400140004401409A
:1016B0000048014070B5026AFF2301339A43026279
:1016C000056A4368C2697024A24392080C689200BC
:1016D00014430122520295438A6812022A43124D92
:1016E000A84208D11546CA68C614B54312022A4357
:1016F0000515AA4308E00D4DA84205D00C4DA8429F
:1017000002D00C4DA84208D103252D03AB434D69EF
:101710002D011D438B691B012B434360C461496844
:10172000C163026270BD0000002C01400040014016
:10173000004401400048014030B5026A01231B0308
:101740009A430262046A4268C36973252D02AB435F
:101750000D682D021D4301235B039C438B681B0313
:1017600023430C4CA04208D00B4CA04205D00B4C9C
:10177000A04202D00A4CA04205D10124A403A243F6
:101780004C69A40122434260C56149680164036257
:1017900030BD0000002C01400040014000440140E9
:1017A0000048014030B5036A046A640864000462BA
:1017B0008469F025AC43120122430A24A3430B435E
:1017C0008261036230BD30B5036A1024A343036213
:1017D0008469036A0F252D031203AC432243A0241E
:1017E000A343090119438261016230BD10B5818CA8
:1017F000C90707D001684A6801235B049A43836ADA
:101800001A434A60818C890707D501684A68012319
:101810001B049A43C36A1A434A60818C490707D55F
:1018200001684A6801239B049A43036B1A434A6088
:10183000818C090707D501684A680123DB039A43B5
:10184000436B1A434A60818CC90607D502689168C8
:1018500001231B039943836B19439160818C890693
:1018600007D501688A6801235B039A43C36B1A4357
:101870008A60818C490612D503685A6801210905DE
:10188000046C8A4322435A60026C8A4207D1026880
:10189000516803235B059943436C19435160818C64
:1018A000090607D501684A680123DB04806C9A4366
:1018B00002434A6010BD0000F8B500260446C66623
:1018C000FEF74AFD054616492068884202D01549B0
:1018D00088421DD10068144F000709D501212B460D
:1018E000002249052046009700F065F900280DD137
:1018F0002068006840070BD501212B46002289058E
:101900002046009700F057F9002801D00320F8BDC9
:10191000202060346072A07226720020F8BD0000A2
:101920000038014000440040FFFFFF0110B5406A4D
:101930000022014640314A834A82FFF7EAFA10BD8D
:1019400001680A68FF2321339A430A6001688A68A4
:10195000520852008A60202160308172704710B5B1
:1019600001680A6840239A430A60202269210A54C8
:10197000FFF788FC002010BD70B5024640320346D8
:101980006033948B9D7A0168222D05D088690822E6
:1019900010438861022070BD898C0126856836035A
:1019A000B54202D10569002D0BD02140446D651C64
:1019B00045652170518B491E0904090C518307D0DC
:1019C00015E0456D21402980416D891C4165F1E795
:1019D00001680A68FF242134A2430A6001688A680A
:1019E000520852008A6020219972FFF7E1FB002023
:1019F00070BD0000F8B504462369A268E5691A4382
:101A0000636910202B43002125681A432B680E467A
:101A1000474F3B4013432B6023685A6803252D032F
:101A2000AA43E5682A435A60236AA26925681A43D3
:101A3000AB680B273F02BB431343AB603D4F2568A8
:101A40003D4B0203BD420AD11B6B9B079B0F20D06D
:101A5000012B14D0022B14D0032B1BD10DE0374FD8
:101A6000BD4210D11B6B03273F043B4011D09B1A92
:101A700005D09B1A05D093420CD102200AE0042025
:101A800008E0082006E02E4B9D4202D02D4B9D42DF
:101A900000D100200123E769DB039F4222D1002807
:101AA0000CD002280DD0042813D0082817D0012606
:101AB0000A0912010807400F10432EE0FEF7ECFD63
:101AC00009E06168204A48088018FEF711FB81B2DE
:101AD000EEE7FEF7F1FD616840004A08F4E761684F
:101AE0004808F1E7002808D0022809D004280CD0C3
:101AF000082815D001263046F8BDFEF7CDFD06E0DA
:101B00006168124A480880180DE0FEF7D5FD61684B
:101B10004A088018FEF7ECFA80B22168C860EAE74C
:101B200061684808C018FEF7E3FA80B2E860E2E7AF
:101B3000F369FFEF0038014000100240004400400C
:101B400000480040004C00400024F40000127A00DD
:101B50006921095C212901D00220704702464032E8
:101B6000518A002912D0012381681B03994202D1B6
:101B70000169002915D0C16C4B1CC3640068097849
:101B80000185508A401E50820020704701680A6813
:101B900080239A430A600068016840221143016073
:101BA000F2E7C16C03680988C905C90D1985C16CC4
:101BB000891CC164E5E7FFB581B017460E460446AF
:101BC0000A9D1DE0681C1BD0002D05D0FEF7C4FB4C
:101BD0000499401AA84213D920680168FF22A13253
:101BE0009143016020688168490849008160202094
:101BF00060346072A07200202072032005B0F0BD36
:101C00002068C1693046884304D00020B842D9D04A
:101C10000020F3E70120F9E710B50248FFF77AF951
:101C200010BD00004C00002002E008C8121F08C1CF
:101C3000002AFAD170477047002001E001C1121F4D
:101C4000002AFBD17047000088B0FEF793FBFFF736
:101C5000E1FBFFF719FBFFF749FBFFF793FB0522B9
:101C600069464B48FFF754FA21274A4D3F014A4C39
:101C700000262868286801281FD12E60022247A16B
:101C80006846FEF771FA00281DD0022244A168467A
:101C9000FEF76AFA002841D0042242A16846FEF706
:101CA00063FA002860D041A103C9424B0822039186
:101CB000029002A93648FFF781FA052269463448A6
:101CC000FFF726FAD5E7324808214038FFF7E6F853
:101CD000666168460179807864223038504309187B
:101CE0006846C0780A225043C01B0818324948434E
:101CF0006421FEF713FA26494039096888634020B9
:101D00006061234804214038FFF7A0F814222BA17A
:101D100002A8FEF717FA274B1122CAE71C48042134
:101D20004038FFF7BBF86661684601798078642225
:101D30003038504309186846C0780A225043C01B07
:101D400008181D4948436421FEF7E8F91049403955
:101D50000968C8630120400260610D4808214038CD
:101D6000FFF774F81AA00BE0094808214038FFF784
:101D700095F8074804214038FFF790F8666118A0ED
:101D80000FC8059302AB07C30A4B102291E700006E
:101D90004C00002000000020000800487472000081
:101DA000746C000073746F70000000004552524F55
:101DB000520D0A00FFFF000080BB00004D6F746FE2
:101DC000722069732072696768740D0A0000000050
:101DD0004D6F746F72206973206C6566740D0A0014
:101DE0004D6F746F722069732073746F700D0A00E9
:101DF00000000000000000000102030406070809BB
:101E00000000000001020304281E0008000000205A
:101E10000C000000281C0008341E00080C000020E4
:101E2000B4040000381C000800000000000000009E
:041E300000127A0022
:04000005080000C12E
:00000001FF
